:100000000C9462000C948A000C948A000C948A0070
:100010000C948A000C948A000C948A000C948A0038
:100020000C948A000C948A000C948A000C948A0028
:100030000C948A000C948A000C948A000C948A0018
:100040000C94AE060C948A000C947C060C94560614
:100050000C948A000C948A000C948A000C948A00F8
:100060000C948A000C948A000000000024002700F1
:100070002A0000000000250028002B0000000000DE
:1000800023002600290004040404040404040202DA
:100090000202020203030303030301020408102007
:1000A0004080010204081020010204081020000012
:1000B0000008000201000003040700000000000027
:1000C0000000F80611241FBECFEFD8E0DEBFCDBF81
:1000D00012E0A0E0B1E0EEECFEE102C005900D926E
:1000E000AE30B107D9F723E0AEE0B2E001C01D9217
:1000F000AA34B207E1F710E0C2E6D0E004C02197CD
:10010000FE010E943D0FC136D107C9F70E94A10729
:100110000C94650F0C9400000F931F93CF93DF9303
:10012000C0911503E6E1F3E0CD3211F0E5E1F3E033
:100130008F0120E030E0A901D801DD918D0180ED33
:100140008D0F8A3090F4AAE0B0E00E94430F2D2F6B
:10015000DD0F330B440B550B260F371F481F591F5C
:100160002053310941095109E7CFA4E6B0E00E94CC
:10017000430FAB01BC01DF01819190ED980F9A30E4
:10018000D0F38E3259F511968C91119790ED980F0E
:100190009A3020F5082E000C990BC0972AE0289F72
:1001A0008001299F100D1124012E000C220B330B0E
:1001B000400F511F621F731F12968C9190ED980F84
:1001C0009A3060F4082E000C990BC097092E000C91
:1001D000AA0BBB0B480F591F6A1F7B1FCD3239F486
:1001E00070956095509541955F4F6F4F7F4FCB0154
:1001F000BA01DF91CF911F910F9108954F925F92B5
:100200006F927F928F929F92AF92BF92CF92DF9226
:10021000EF92FF921F93CF93DF93C5E1D3E0FE01EE
:10022000C12CD12C7601119180ED810F8A30A8F478
:10023000AAE0B0E0A70196010E94430FC12E110F62
:10024000DD08EE08FF08C60ED71EE81EF91E80E383
:10025000C81AD108E108F108E6CFC701B60124E6C3
:1002600030E040E050E00E941B0F9B01AC0160EACF
:1002700076E881E090E00E940B0F4B015C019E014B
:10028000899190ED980F9A30D0F38E3221F5E901E3
:10029000219680E1482E87E2582E612C712CA9917D
:1002A00080ED8A0F8A30B8F40A2E000CBB0BD09771
:1002B000A30192010E944E0F860E971EA81EB91E22
:1002C000C301B2012AE030E040E050E00E941B0F81
:1002D00029013A01E4CFC701B60124E630E040E04D
:1002E00050E00E941B0F60E472E48FE090E00E94F7
:1002F0000B0F6B017C01C501B4016D5F7F4F8F4F08
:100300009F4F26E030E040E050E00E941B0FC70105
:10031000B601620F731F841F951FDF91CF911F914C
:10032000FF90EF90DF90CF90BF90AF909F908F9015
:100330007F906F905F904F900895AF92BF92CF9251
:10034000DF92EF92FF920F931F93CF93DF936C0195
:100350007B018B01040F151FEB015E01AE18BF0876
:10036000C017D10759F06991D601ED91FC91019028
:10037000F081E02DC6010995892B79F7C501DF9140
:10038000CF911F910F91FF90EF90DF90CF90BF9092
:10039000AF900895FC01538D448D252F30E0842FBC
:1003A00090E0821B930B541710F0CF96089501979D
:1003B0000895FC01918D828D981761F0A28DAE0F8A
:1003C000BF2FB11D5D968C91928D9F5F9F73928F11
:1003D00090E008958FEF9FEF0895FC01918D828D3D
:1003E000981731F0828DE80FF11D858D90E008950A
:1003F0008FEF9FEF0895FC01918D228D892F90E062
:10040000805C9F4F821B91098F739927089582E228
:1004100092E00E94FB0121E0892B09F420E0822F69
:10042000089580E090E0892B29F00E940702811155
:100430000C9400000895FC01A48DA80FB92FB11DE4
:10044000A35ABF4F2C91848D90E001968F7399270A
:10045000848FA689B7892C93A089B1898C918370E8
:1004600080648C93938D848D981306C00288F389E1
:10047000E02D80818F7D80830895EF92FF920F930E
:100480001F93CF93DF93EC0181E0888F9B8D8C8D40
:1004900098131AC0E889F989808185FF15C09FB734
:1004A000F894EE89FF896083E889F98980818370F7
:1004B000806480839FBF81E090E0DF91CF911F91A6
:1004C0000F91FF90EF900895F62E0B8D10E00F5FC7
:1004D0001F4F0F731127E02E8C8D8E110CC00FB69D
:1004E00007FCFACFE889F989808185FFF5CFCE0135
:1004F0000E941B02F1CFEB8DEC0FFD2FF11DE35A93
:10050000FF4FF0829FB7F8940B8FEA89FB898081B7
:100510008062CFCFCF93DF93EC01888D8823B9F031
:10052000AA89BB89E889F9898C9185FD03C08081FE
:1005300086FD0DC00FB607FCF7CF8C9185FFF2CF7B
:10054000808185FFEDCFCE010E941B02E9CFDF91B4
:10055000CF910895833081F028F4813099F0823072
:10056000A9F008958730A9F08830C9F08430B1F43B
:10057000809180008F7D03C0809180008F77809371
:100580008000089584B58F7784BD089584B58F7DEC
:10059000FBCF8091B0008F778093B0000895809159
:1005A000B0008F7DF9CFCF93DF93282F30E0F90192
:1005B000E255FF4F8491F901E656FF4FD491F901BE
:1005C000EA57FF4FC491CC23A1F081110E94AA02E7
:1005D000EC2FF0E0EE0FFF1FE458FF4FA591B49110
:1005E000EC91ED2381E090E009F480E0DF91CF9180
:1005F000089580E090E0FACF1F93CF93DF93282FE8
:1006000030E0F901E255FF4F8491F901E656FF4FC2
:10061000D491F901EA57FF4FC491CC23A9F0162FCA
:1006200081110E94AA02EC2FF0E0EE0FFF1FEE589E
:10063000FF4FA591B4918FB7F894EC91111108C0B8
:10064000D095DE23DC938FBFDF91CF911F9108956A
:10065000DE2BF8CFCF93DF9390E0FC01E656FF4FFF
:1006600024918A579F4FFC0184918823D1F090E018
:10067000880F991FFC01E859FF4FA591B491FC0127
:10068000EE58FF4FC591D49161110EC09FB7F894F9
:100690008C91E22FE0958E238C932881E223E883CE
:1006A0009FBFDF91CF9108958FB7F894EC91E22B23
:1006B000EC938FBFF6CF3FB7F89480910F029091E3
:1006C0001002A0911102B091120226B5A89B05C09C
:1006D0002F3F19F00196A11DB11D3FBFBA2FA92FC1
:1006E000982F8827BC01CD01620F711D811D911DBE
:1006F00042E0660F771F881F991F4A95D1F708952A
:100700008F929F92AF92BF92CF92DF92EF92FF9221
:100710004B015C010E945B036B017C010E945B0347
:100720006C197D098E099F09683E7340810591050A
:10073000A8F321E0821A9108A108B10888EEC80E3A
:1007400083E0D81EE11CF11C81149104A104B104C2
:1007500029F7FF90EF90DF90CF90BF90AF909F90E0
:100760008F900895089590E080E00895CF93DF93EF
:10077000EC0160E08E810E94FC0261E08E810E94AB
:10078000FC0260E08E810E94FC028BE891E0019700
:10079000F1F7DF91CF910895CF92DF92EF92FF9220
:1007A0000F931F93CF93DF936C017C0187E0E80EDA
:1007B000F11CD0E0C0E0062F10E0B8010C2E02C002
:1007C000759567950A94E2F76170F70181917F0151
:1007D0000E94FC022196C430D10579F7C601DF9151
:1007E000CF911F910F91FF90EF90DF90CF900C94DD
:1007F000B603CF92DF92EF92FF920F931F93CF93A6
:10080000DF93EC01F62E642F8C810E94FC028D8117
:100810008F3F19F060E00E94FC020F2D10E08F85E1
:1008200084FF25C06E0187E0C80ED11CF12CE12C9D
:10083000B8010E2C02C0759567950A94E2F76170B5
:10084000F60181916F010E94FC02FFEFEF1AFF0A8F
:1008500088E0E816F10461F7CE01DF91CF911F9196
:100860000F91FF90EF90DF90CF900C94B603B801FA
:1008700084E0759567958A95E1F7CE010E94CC03D7
:100880006F2DCE01DF91CF911F910F91FF90EF90CF
:10089000DF90CF900C94CC0340E0682F82E393E08C
:1008A0000C94F90381E00E944C048BE39FE10197D3
:1008B000F1F70895CF93DF93823029F490914103AB
:1008C000986090934103809345031092460380E41F
:1008D0008093470380E18093480380E58093490338
:1008E00061E0809136030E942A03809137038F3F95
:1008F00019F061E00E942A0361E0809138030E94B0
:100900002A03C2E3D3E09E01225333408091410386
:1009100084FD0BC084E090E021962817390744F449
:1009200061E08E810E942A03EECF88E090E0F4CF50
:100930008BE39DE00197F1F760E0809136030E9420
:10094000FC0260E0809138030E94FC028091370332
:100950008F3F19F060E00E94FC028091410384FD0A
:1009600034C063E082E393E00E94CC03CBE4D6E49E
:10097000CE010197F1F763E082E393E00E94CC039C
:100980002197F1F763E082E393E00E94CC0383E5D3
:1009900092E00197F1F762E082E393E00E94CC03DA
:1009A0008091410380620E944C0484E08093420362
:1009B0008CE00E944C040E94520482E08093430326
:1009C00086E0DF91CF910C944C0480620E944C042D
:1009D0008BE496E40197F1F78091410380620E94D5
:1009E0004C0483E592E00197F1F780914103806226
:1009F0000E944C04D5CFE0914503E33048F4E15028
:100A0000F0E0EE5CFC4F84898D5F80680C944C04B0
:100A1000E2E0F6CF41E00E94F90381E090E0089522
:100A2000FB0101900020E9F73197AF01461B570BFE
:100A3000DC01ED91FC910280F381E02D09948F920D
:100A40009F92AF92BF920F931F93CF93DF93CDB737
:100A5000DEB7A1970FB6F894DEBF0FBECDBF19A2C7
:100A6000423008F44AE08E010F5D1F4F842E912C16
:100A7000B12CA12CA50194010E941B0FE62FB901F6
:100A8000CA01EA3004F5E05DD801EE938D01232B15
:100A9000242B252B79F790E080E0109729F0BD01F9
:100AA00082E292E00E941005A1960FB6F894DEBF94
:100AB0000FBECDBFDF91CF911F910F91BF90AF902F
:100AC0009F908F900895E95CDFCFCF93DF93BC01B7
:100AD00082E292E00E941005EC016EE171E082E298
:100AE00092E00E9410058C0F9D1FDF91CF91089519
:100AF0004F925F926F927F928F929F92AF92BF922E
:100B0000CF92DF92EF92FF920F931F93CF936B01DF
:100B10007C01742EAC019B010E94060F61E271E022
:100B2000811126C046015701E894B7F82FEF3FEF37
:100B30004FE75FE7C501B4010E94060F81110CC0A9
:100B40002FEF3FEF4FE75FE7C501B4010E943C0D77
:100B500065E271E0181664F02FEF3FEF4FE75FE4B6
:100B6000C701B6010E94940E1816ACF469E271E058
:100B700082E292E0CF911F910F91FF90EF90DF9072
:100B8000CF90BF90AF909F908F907F906F905F902D
:100B90004F900C9410052FEF3FEF4FE75FECC7012C
:100BA000B6010E943C0D87FDE1CF20E030E0A901B5
:100BB000C701B6010E943C0D10E000E087FF0AC0AB
:100BC0006DE282E292E00E943D028C01F7FAF0941D
:100BD000F7F8F094C0E060E070E080E09FE37C16FE
:100BE00041F020E030E040E251E40E94410DCF5F4F
:100BF000F6CFA70196010E94D00C2B013C010E9468
:100C0000B30D4B015C014AE00E941F057C01E00E20
:100C1000F11ECC23C1F1C501B4010E94E20D9B017C
:100C2000AC01C301B2010E94CF0C4B015C016EE22A
:100C300082E292E00E943D02E80EF91EC15018F1D6
:100C400020E030E040E251E4C501B4010E94990E79
:100C50002B013C010E94B30D4B01B12CA12C4AE0A9
:100C6000C501B4010E941F05E80EF91EC501B401BB
:100C70000E94E20D9B01AC01C301B2010E94CF0CA6
:100C80004B015C01DBCFC701CF911F910F91FF900A
:100C9000EF90DF90CF90BF90AF909F908F907F901C
:100CA0006F905F904F9008950C9410051F920F92D3
:100CB0000FB60F9211242F933F934F935F936F932F
:100CC0007F938F939F93AF93BF93EF93FF9382E2B2
:100CD00092E00E941B02FF91EF91BF91AF919F9113
:100CE0008F917F916F915F914F913F912F910F90D5
:100CF0000FBE0F901F9018951F920F920FB60F9274
:100D000011242F938F939F93EF93FF93E0913202DF
:100D1000F09133028081E0913802F091390282FD36
:100D20001BC0908180913B028F5F8F7320913C02AA
:100D3000821741F0E0913B02F0E0EE5DFD4F958FB0
:100D400080933B02FF91EF919F918F912F910F9094
:100D50000FBE0F901F9018958081F4CF1F920F92B5
:100D60000FB60F9211242F933F938F939F93AF93BE
:100D7000BF938091130290911402A0911502B0913B
:100D8000160230910E0223E0230F2D3758F50196FD
:100D9000A11DB11D20930E028093130290931402A3
:100DA000A0931502B093160280910F029091100249
:100DB000A0911102B09112020196A11DB11D809364
:100DC0000F0290931002A0931102B0931202BF91F0
:100DD000AF919F918F913F912F910F900FBE0F90E8
:100DE0001F90189526E8230F0296A11DB11DD2CFA2
:100DF000E2E2F2E01382128288EE93E0A0E0B0E03B
:100E000084839583A683B78384E091E09183808374
:100E100085EC90E09587848784EC90E097878687BF
:100E200080EC90E0918B808B81EC90E0938B828BB7
:100E300082EC90E0958B848B86EC90E0978B868B90
:100E4000118E128E138E148EE2E3F3E0138212825F
:100E500086E191E09183808384E084838FEF8583B2
:100E600085E0868386E0878387E0808788E08187C6
:100E700089E082871386148615861686178681E098
:100E80000E945A04EFEBF2E04FEF5FEFBA014083AC
:100E900051836283738310861186128613868FEFC7
:100EA00099ECAAE9BBE3808B918BA28BB38B808FEB
:100EB000918FA28FB38F80A391A3A2A3B3A380A786
:100EC00091A7A2A7B3A780AB91ABA2ABB3AB40AF46
:100ED00051AF62AF73AF8FEF90E0909300038093B8
:100EE000FF02409303035093040360930503709340
:100EF000060340930B0350930C0360930D03709310
:100F00000E03109213031092140382E080932403C3
:100F100010922503109226031092270310922803A3
:100F20001092290310922A0310922B0310922D0382
:100F300010922C0310922F0310922E03109215037F
:100F40000895789484B5826084BD84B5816084BD41
:100F500085B5826085BD85B5816085BD80916E0057
:100F6000816080936E001092810080918100826088
:100F700080938100809181008160809381008091C5
:100F800080008160809380008091B10084608093B4
:100F9000B1008091B00081608093B00080917A00B0
:100FA000846080937A0080917A00826080937A00D6
:100FB00080917A00816080937A0080917A008068C5
:100FC00080937A001092C10061E082E00E942A03BF
:100FD00061E083E00E942A0360E08AE00E942A0325
:100FE00060E08BE00E942A0360E08CE00E942A030C
:100FF000E0913202F091330282E08083E0912E0290
:10100000F0912F021082E0913002F09131028FECCA
:10101000808310923A02E0913602F091370286E026
:101020008083E0913402F091350280818061808379
:10103000E0913402F0913502808188608083E091F4
:101040003402F0913502808180688083E09134021F
:10105000F091350280818F7D808382E00E945A0466
:101060006DE271E082E393E00E9454060E94FB046B
:1010700060E471E082E393E00E94540600E010E037
:101080008AE00E94D302EC0181E0209709F480E01D
:101090008093210264E670E080E090E00E9480038B
:1010A000CD2B09F420C460E083E00E94FC0268ECD0
:1010B00070E080E090E00E9480030E94520467E4A8
:1010C00071E082E393E00E9454060E94FB0466E70D
:1010D00071E082E393E00E94540664EF71E080E0E7
:1010E00090E00E9480038BE00E94D302EC0181E03B
:1010F000209709F480E08093200264E670E080E0AD
:1011000090E00E948003CD2B09F0C4C360E083E02F
:101110000E94FC0268EC70E080E090E00E94800396
:101120000E94520461E571E082E393E00E9454065C
:101130000E94FB0466E771E082E393E00E9454069C
:1011400064EF71E080E090E00E94800361E082E063
:101150000E94FC0268EC70E080E090E00E94800356
:101160000E9452046DE571E082E393E00E94540610
:1011700064EF71E080E090E00E9480038CE00E94C8
:10118000D302EC0181E0209709F480E080931F02F4
:1011900064E670E080E090E00E948003CD2B71F364
:1011A0000E9452046DE671E082E393E00E945406CF
:1011B0000E94FB046FE771E082E393E00E94540613
:1011C00064EF71E080E090E00E9480038BE891E0A2
:1011D0000E94650564E670E080E090E00E94800374
:1011E00085E991E00E94650564E670E080E090E0AA
:1011F0000E9480038EEA91E00E94650581EC91E0F7
:101200000E946505D2E011E082E292E00E94FB01BB
:10121000892BD1F382E292E00E94D901C82F8091FC
:10122000280390912903A0912A03B0912B030196E2
:10123000A11DB11D8093280390932903A0932A0335
:10124000B0932B03C43209F404C3E0912603C532E2
:101250004CF4CA3019F0CD3009F008C3EF3068F013
:1012600000E0CBC0CA32D1F3CC3209F0FFC280918A
:1012700013038C2780931303F1CF90912503F0E0A3
:10128000EB5EFC4F108200911403002309F49CC113
:1012900020911503822F022E000C990B3FEB320F89
:1012A000363008F01DC1C7978295807F9091160354
:1012B000292F092E000C330B4FEB490F463008F055
:1012C00017C127533109820F90911303891372C1FB
:1012D00000912703002321F280912C0390912D038C
:1012E000019690932D0380932C0380910703909196
:1012F0000803A0910903B0910A038093030390931C
:101300000403A0930503B093060380910F0390910B
:101310001003A0911103B091120380930B039093DB
:101320000C03A0930D03B0930E0380912403882334
:1013300009F4E7C0813009F060C08091C302909148
:10134000C402A091C502B091C6028093BF029093DF
:10135000C002A093C102B093C2028091CB029091CF
:10136000CC02A091CD02B091CE028093C70290939F
:10137000C802A093C902B093CA028091D30290918F
:10138000D402A091D502B091D6028093CF0290935F
:10139000D002A093D102B093D2028091DB0290914F
:1013A000DC02A091DD02B091DE028093D70290931F
:1013B000D802A093D902B093DA028091EB02909107
:1013C000EC02A091ED02B091EE028093E7029093BF
:1013D000E802A093E902B093EA028091F3029091AF
:1013E000F402A091F502B091F6028093EF0290937F
:1013F000F002A093F102B093F202809125038F5F77
:10140000809325031092260381E0CA3209F080E020
:1014100080931403002309F4F7CE8091CF029091BA
:10142000D002A091D102B091D20280931B0290937E
:101430001C02A0931D02B0931E028091D7029091CE
:10144000D802A091D902B091DA028093170290934A
:101450001802A0931902B0931A0283EE91E00E9441
:1014600065056EEE71E082E292E00E9454066091A2
:101470001B0270911C0280911D0290911E020E941D
:10148000E40D2DEB37E346E855E30E94990E48E062
:101490000E9478056EE171E082E292E00E94100500
:1014A00063EF71E082E292E00E94540660911702BD
:1014B000709118028091190290911A020E94E40D15
:1014C0002DEB37E346E855E30E94990E48E00E9471
:1014D00078056EE171E082E292E00E9410059FCEF5
:1014E0002156263018F487559109DECEC097DCCE00
:1014F0009156963018F427553109E5CE205331091D
:10150000E2CE8091E3029091E402A091E502B091D5
:10151000E6028093DF029093E002A093E102B09391
:10152000E2028091C3029091C402A091C502B091E1
:10153000C6028093BF029093C002A093C102B093F1
:10154000C2028091D3029091D402A091D502B091B1
:10155000D6028093CF029093D002A093D102B09391
:10156000D2028091DB029091DC02A091DD02B09169
:10157000DE028093D7029093D802A093D902B09351
:10158000DA0280910103909102039093000380930B
:10159000FF028091FB029091FC02A091FD02B091AC
:1015A000FE028093F7029093F802A093F902B093A1
:1015B000FA0223CF80912E0390912F0301969093EE
:1015C0002F0380932E034CCE91111CC0A5E1B3E0F4
:1015D00047ED51E09D01F90181919F01882309F4B4
:1015E000B2C1FA019191AF018917A9F3EDEDF1E0D4
:1015F0008D91882309F4AAC191918917C9F3D093D9
:101600002403FBCEE0912403E23009F429CE80913B
:101610001503882309F424CE20E2E29FF00111246F
:10162000E92B3197E932F10508F0E7CEE65EF44F99
:101630000C943D0F600B840BA20BBD0BC80B020C6E
:10164000090C130C1E0CFD09FD09FD09FD09FD091E
:10165000FD09FD09FD09FD09FD09FD09FD09FD095A
:10166000FD09FD09FD09FD09FD09FD09FD09FD094A
:10167000FD09FD09600B7E0B840BA20BBD0BC80B93
:10168000E30BEE0B430BE5E1F3E020E030E0A901D2
:10169000F19080ED8F0D8A3008F0ABC0AAE0B0E089
:1016A0000E94430F2F2DFF0C330B440B550B260FBD
:1016B000371F481F591F2053310941095109E8CFED
:1016C0000E948C006093C3027093C4028093C50291
:1016D0009093C6022FB7F894809113029091140250
:1016E000A0911502B09116022FBF8093070390932B
:1016F0000803A0930903B0930A037FCE91E08134DD
:1017000009F484C090E082C00E94FE006093D3027E
:101710007093D4028093D5029093D6022FB7F89499
:101720008091130290911402A0911502B0911602BB
:101730002FBF80930F0390931003A0931103B093D6
:1017400012035BCE833509F08BCD8091D30290914B
:10175000D402A091D502B091D602B095A0959095F3
:1017600081959F4FAF4FBF4F8093D3029093D40288
:10177000A093D502B093D60240CE0E94FE006093A3
:10178000DB027093DC028093DD029093DE0235CEA3
:10179000873509F065CD8091DB029091DC02A09144
:1017A000DD02B091DE02B095A095909581959F4F96
:1017B000AF4FBF4F8093DB029093DC02A093DD021A
:1017C000B093DE021ACE0E948C006093EB027093FD
:1017D000EC028093ED029093EE020FCE0E948C00FB
:1017E0006093F3027093F4028093F5029093F602F3
:1017F00004CE2093CB023093CC024093CD02509381
:10180000CE02FBCD91E081330CF47CCF9093270383
:10181000F4CD85E193E00E94A90C992790930203EF
:1018200080930103EACD0E948C006093FB027093C9
:10183000FC028093FD029093FE02DFCD0E948C009B
:101840006093E3027093E4028093E5029093E602D2
:10185000D4CD109226031092250310921303D09337
:1018600024031092140310922703CECCEE3040F4E0
:1018700081E08E0F80932603F0E0EB5EFC4FC08387
:10188000809114038111C0CC80911303C827C093A9
:101890001303BACC0E94520468EF71E082E393E034
:1018A0000E9454060E94FB0466E771E082E393E025
:1018B0000E94540664EF71E080E090E00E94800393
:1018C00060E082E00E94FC0268EC70E080E090E062
:1018D0000E94800361E083E00E94FC0268EC70E0FB
:1018E00080E090E0FECB0E94520467E471E082E366
:1018F00093E00E9454060E94FB0461E072E082E3E0
:1019000093E00E94540660E082E00E94FC0268ECD2
:1019100070E080E090E00E94800361E083E00E943C
:10192000FC0268EC70E080E090E00E94800301150A
:10193000110509F4A5CB0E940702882309F4A0CB66
:101940000E9400009DCB1093240357CD10922403D6
:1019500054CDFC0188279927E89421912032E9F39E
:10196000293010F02E30C8F32B3241F02D3239F4EB
:10197000689404C00E94C70C820F911D21912053CE
:101980002A30C0F31EF4909581959F4F08957AE018
:10199000979F902D879F802D910D11240895505869
:1019A000BB27AA270E94E70C0C945A0E0E944C0EEB
:1019B00038F00E94530E20F039F49F3F19F426F4BA
:1019C0000C94490E0EF4E095E7FB0C94430EE92FBE
:1019D0000E946B0E58F3BA176207730784079507C6
:1019E00020F079F4A6F50C948D0E0EF4E0950B2EF4
:1019F000BA2FA02D0B01B90190010C01CA01A00161
:101A00001124FF27591B99F0593F50F4503E68F1BB
:101A10001A16F040A22F232F342F4427585FF3CFFC
:101A2000469537952795A795F0405395C9F77EF4CD
:101A30001F16BA0B620B730B840BBAF09150A1F016
:101A4000FF0FBB1F661F771F881FC2F70EC0BA0F9C
:101A5000621F731F841F48F4879577956795B79524
:101A6000F7959E3F08F0B0CF9395880F08F099271F
:101A7000EE0F9795879508950E941F0E08F481E058
:101A800008950E94550D0C945A0E0E94530E58F062
:101A90000E944C0E40F029F45F3F29F00C94430E55
:101AA00051110C948E0E0C94490E0E946B0E68F32B
:101AB0009923B1F3552391F3951B550BBB27AA2707
:101AC00062177307840738F09F5F5F4F220F331F41
:101AD000441FAA1FA9F335D00E2E3AF0E0E832D009
:101AE00091505040E695001CCAF72BD0FE2F29D00C
:101AF000660F771F881FBB1F261737074807AB07DE
:101B0000B0E809F0BB0B802DBF01FF2793585F4F52
:101B10003AF09E3F510578F00C94430E0C948E0ED3
:101B20005F3FE4F3983ED4F3869577956795B79534
:101B3000F7959F5FC9F7880F911D9695879597F93F
:101B40000895E1E0660F771F881FBB1F62177307B8
:101B50008407BA0720F0621B730B840BBA0BEE1FCD
:101B600088F7E09508950E94730E88F09F5798F0CB
:101B7000B92F9927B751B0F0E1F0660F771F881F92
:101B8000991F1AF0BA95C9F714C0B13091F00E94AC
:101B90008D0EB1E008950C948D0E672F782F882755
:101BA000B85F39F0B93FCCF3869577956795B395D3
:101BB000D9F73EF490958095709561957F4F8F4F42
:101BC0009F4F0895E89409C097FB3EF49095809547
:101BD000709561957F4F8F4F9F4F9923A9F0F92FF3
:101BE00096E9BB279395F695879577956795B79571
:101BF000F111F8CFFAF4BB0F11F460FF1BC06F5F57
:101C00007F4F8F4F9F4F16C0882311F096E911C068
:101C1000772321F09EE8872F762F05C0662371F089
:101C200096E8862F70E060E02AF09A95660F771F9D
:101C3000881FDAF7880F9695879597F90895990F79
:101C40000008550FAA0BE0E8FEEF16161706E80786
:101C5000F907C0F012161306E407F50798F0621BA7
:101C6000730B840B950B39F40A2661F0232B242B7C
:101C7000252B21F408950A2609F4A140A6958FEF9B
:101C8000811D811D089597F99F6780E870E060E0ED
:101C900008959FEF80EC089500240A941616170605
:101CA00018060906089500240A941216130614064D
:101CB00005060895092E0394000C11F4882352F0B0
:101CC000BB0F40F4BF2B11F460FF04C06F5F7F4F68
:101CD0008F4F9F4F089557FD9058440F551F59F04F
:101CE0005F3F71F04795880F97FB991F61F09F3F09
:101CF00079F087950895121613061406551FF2CF32
:101D00004695F1DF08C0161617061806991FF1CF81
:101D100086957105610508940895E894BB276627A8
:101D20007727CB0197F908950E941F0E08F48FEFD3
:101D300008950E94AC0E0C945A0E0E944C0E38F07E
:101D40000E94530E20F0952311F00C94430E0C9436
:101D5000490E11240C948E0E0E946B0E70F3959F09
:101D6000C1F3950F50E0551F629FF001729FBB2792
:101D7000F00DB11D639FAA27F00DB11DAA1F649F2E
:101D80006627B00DA11D661F829F2227B00DA11DE1
:101D9000621F739FB00DA11D621F839FA00D611D67
:101DA000221F749F3327A00D611D231F849F600D88
:101DB000211D822F762F6A2F11249F5750409AF0B1
:101DC000F1F088234AF0EE0FFF1FBB1F661F771F3D
:101DD000881F91505040A9F79E3F510580F00C9408
:101DE000430E0C948E0E5F3FE4F3983ED4F3869539
:101DF00077956795B795F795E7959F5FC1F7FE2BA8
:101E0000880F911D9695879597F908950E941F0E4A
:101E1000880B990B0895DB018F939F930E94430FCA
:101E2000BF91AF91A29F800D911DA39F900DB29F76
:101E3000900D11240895A1E21A2EAA1BBB1BFD01CF
:101E40000DC0AA1FBB1FEE1FFF1FA217B307E40799
:101E5000F50720F0A21BB30BE40BF50B661F771FF1
:101E6000881F991F1A9469F76095709580959095D1
:101E70009B01AC01BD01CF010895EE0FFF1F05903E
:101E8000F491E02D09940E94560FA59F900DB49FE8
:101E9000900DA49F800D911D11240895B7FF0C94FF
:101EA000430F0E94430F821B930B0895A29FB00122
:101EB000B39FC001A39F700D811D1124911DB29F7E
:0E1EC000700D811D1124911D0895F894FFCF1F
:101ECE00000000003D029D01CA018A02FB01D901FA
:101EDE00ED01000000000A059D01B303B2030D0AD7
:101EEE00006E616E00696E66006F76660041434358
:101EFE004944454E5420444554454354494F4E00A1
:101F0E0053595354454D00536561742042656C74AA
:101F1E0000416C636F686F6C206E6F74005665685D
:101F2E0069636C6520537461727465640041636308
:101F3E006964656E742044657465637465640053EA
:101F4E00656E64696E67204D73670041542B434D77
:101F5E0047463D310041542B434D47533D222B39CB
:101F6E003139393232353132303137220D00416359
:101F7E00636964656E74204465746563746564207A
:101F8E0000706C6561736520636865636B206C6FB0
:101F9E00636174696F6E004750524D43004750475E
:101FAE00474100506F736974696F6E3A20006C611F
:101FBE00743A006C6F673A00416C636F686F6C2007
:0E1FCE00006E6F742044657465637465640072
:00000001FF
